{
  "contractName": "Votes",
  "abi": [
    {
      "inputs": [],
      "stateMutability": "nonpayable",
      "type": "constructor"
    },
    {
      "inputs": [
        {
          "internalType": "address",
          "name": "",
          "type": "address"
        }
      ],
      "name": "voted",
      "outputs": [
        {
          "internalType": "bool",
          "name": "",
          "type": "bool"
        }
      ],
      "stateMutability": "view",
      "type": "function"
    },
    {
      "inputs": [
        {
          "internalType": "string",
          "name": "",
          "type": "string"
        }
      ],
      "name": "votees",
      "outputs": [
        {
          "internalType": "uint256",
          "name": "",
          "type": "uint256"
        }
      ],
      "stateMutability": "view",
      "type": "function"
    },
    {
      "inputs": [
        {
          "internalType": "address",
          "name": "",
          "type": "address"
        }
      ],
      "name": "voters",
      "outputs": [
        {
          "internalType": "bool",
          "name": "",
          "type": "bool"
        }
      ],
      "stateMutability": "view",
      "type": "function"
    },
    {
      "inputs": [],
      "name": "registerVoter",
      "outputs": [],
      "stateMutability": "nonpayable",
      "type": "function"
    },
    {
      "inputs": [],
      "name": "initVotees",
      "outputs": [],
      "stateMutability": "nonpayable",
      "type": "function"
    },
    {
      "inputs": [
        {
          "internalType": "string",
          "name": "ostype",
          "type": "string"
        }
      ],
      "name": "vote",
      "outputs": [],
      "stateMutability": "nonpayable",
      "type": "function"
    }
  ],
  "bytecode": "0x608060405234801561001057600080fd5b50336000806101000a81548173ffffffffffffffffffffffffffffffffffffffff021916908373ffffffffffffffffffffffffffffffffffffffff160217905550610cfd806100606000396000f3fe608060405234801561001057600080fd5b50600436106100625760003560e01c8063894a9f2414610067578063a3ec138d14610097578063aec2ccae146100c7578063ecb617d9146100f7578063fc36e15b14610101578063fd7cdf6a1461011d575b600080fd5b610081600480360381019061007c91906106de565b610127565b60405161008e9190610740565b60405180910390f35b6100b160048036038101906100ac91906107b9565b610155565b6040516100be9190610801565b60405180910390f35b6100e160048036038101906100dc91906107b9565b610175565b6040516100ee9190610801565b60405180910390f35b6100ff610195565b005b61011b6004803603810190610116919061087c565b6102d4565b005b61012561048e565b005b6003818051602081018201805184825260208301602085012081835280955050505050506000915090505481565b60016020528060005260406000206000915054906101000a900460ff1681565b60026020528060005260406000206000915054906101000a900460ff1681565b3373ffffffffffffffffffffffffffffffffffffffff1660008054906101000a900473ffffffffffffffffffffffffffffffffffffffff1673ffffffffffffffffffffffffffffffffffffffff1603610223576040517f08c379a000000000000000000000000000000000000000000000000000000000815260040161021a9061094c565b60405180910390fd5b60018060003373ffffffffffffffffffffffffffffffffffffffff1673ffffffffffffffffffffffffffffffffffffffff16815260200190815260200160002060006101000a81548160ff0219169083151502179055506000600260003373ffffffffffffffffffffffffffffffffffffffff1673ffffffffffffffffffffffffffffffffffffffff16815260200190815260200160002060006101000a81548160ff021916908315150217905550565b60011515600160003373ffffffffffffffffffffffffffffffffffffffff1673ffffffffffffffffffffffffffffffffffffffff16815260200190815260200160002060009054906101000a900460ff16151514610367576040517f08c379a000000000000000000000000000000000000000000000000000000000815260040161035e906109b8565b60405180910390fd5b60011515600260003373ffffffffffffffffffffffffffffffffffffffff1673ffffffffffffffffffffffffffffffffffffffff16815260200190815260200160002060009054906101000a900460ff161515036103fa576040517f08c379a00000000000000000000000000000000000000000000000000000000081526004016103f190610a24565b60405180910390fd5b60016003838360405161040e929190610a74565b9081526020016040518091039020600082825461042b9190610abc565b925050819055506001600260003373ffffffffffffffffffffffffffffffffffffffff1673ffffffffffffffffffffffffffffffffffffffff16815260200190815260200160002060006101000a81548160ff0219169083151502179055505050565b3373ffffffffffffffffffffffffffffffffffffffff1660008054906101000a900473ffffffffffffffffffffffffffffffffffffffff1673ffffffffffffffffffffffffffffffffffffffff161461051c576040517f08c379a000000000000000000000000000000000000000000000000000000000815260040161051390610b84565b60405180910390fd5b6000600360405161052c90610bf0565b9081526020016040518091039020819055506000600360405161054e90610c51565b9081526020016040518091039020819055506000600360405161057090610cb2565b908152602001604051809103902081905550565b6000604051905090565b600080fd5b600080fd5b600080fd5b600080fd5b6000601f19601f8301169050919050565b7f4e487b7100000000000000000000000000000000000000000000000000000000600052604160045260246000fd5b6105eb826105a2565b810181811067ffffffffffffffff8211171561060a576106096105b3565b5b80604052505050565b600061061d610584565b905061062982826105e2565b919050565b600067ffffffffffffffff821115610649576106486105b3565b5b610652826105a2565b9050602081019050919050565b82818337600083830152505050565b600061068161067c8461062e565b610613565b90508281526020810184848401111561069d5761069c61059d565b5b6106a884828561065f565b509392505050565b600082601f8301126106c5576106c4610598565b5b81356106d584826020860161066e565b91505092915050565b6000602082840312156106f4576106f361058e565b5b600082013567ffffffffffffffff81111561071257610711610593565b5b61071e848285016106b0565b91505092915050565b6000819050919050565b61073a81610727565b82525050565b60006020820190506107556000830184610731565b92915050565b600073ffffffffffffffffffffffffffffffffffffffff82169050919050565b60006107868261075b565b9050919050565b6107968161077b565b81146107a157600080fd5b50565b6000813590506107b38161078d565b92915050565b6000602082840312156107cf576107ce61058e565b5b60006107dd848285016107a4565b91505092915050565b60008115159050919050565b6107fb816107e6565b82525050565b600060208201905061081660008301846107f2565b92915050565b600080fd5b600080fd5b60008083601f84011261083c5761083b610598565b5b8235905067ffffffffffffffff8111156108595761085861081c565b5b60208301915083600182028301111561087557610874610821565b5b9250929050565b600080602083850312156108935761089261058e565b5b600083013567ffffffffffffffff8111156108b1576108b0610593565b5b6108bd85828601610826565b92509250509250929050565b600082825260208201905092915050565b7f6f776e6572206f66207468697320636f6e74726163742063616e206e6f74206360008201527f616c6c20746869732066756e6374696f6e000000000000000000000000000000602082015250565b60006109366031836108c9565b9150610941826108da565b604082019050919050565b6000602082019050818103600083015261096581610929565b9050919050565b7f796f7520617265206e6f74207265676973746572656400000000000000000000600082015250565b60006109a26016836108c9565b91506109ad8261096c565b602082019050919050565b600060208201905081810360008301526109d181610995565b9050919050565b7f796f7520616c726561647920766f746564000000000000000000000000000000600082015250565b6000610a0e6011836108c9565b9150610a19826109d8565b602082019050919050565b60006020820190508181036000830152610a3d81610a01565b9050919050565b600081905092915050565b6000610a5b8385610a44565b9350610a6883858461065f565b82840190509392505050565b6000610a81828486610a4f565b91508190509392505050565b7f4e487b7100000000000000000000000000000000000000000000000000000000600052601160045260246000fd5b6000610ac782610727565b9150610ad283610727565b9250827fffffffffffffffffffffffffffffffffffffffffffffffffffffffffffffffff03821115610b0757610b06610a8d565b5b828201905092915050565b7f6f6e6c7920746865206f776e6572206f66207468697320636f6e74726163742060008201527f63616e2063616c6c20746869732066756e6374696f6e00000000000000000000602082015250565b6000610b6e6036836108c9565b9150610b7982610b12565b604082019050919050565b60006020820190508181036000830152610b9d81610b61565b9050919050565b7f6d61630000000000000000000000000000000000000000000000000000000000600082015250565b6000610bda600383610a44565b9150610be582610ba4565b600382019050919050565b6000610bfb82610bcd565b9150819050919050565b7f77696e646f777300000000000000000000000000000000000000000000000000600082015250565b6000610c3b600783610a44565b9150610c4682610c05565b600782019050919050565b6000610c5c82610c2e565b9150819050919050565b7f6c696e7578000000000000000000000000000000000000000000000000000000600082015250565b6000610c9c600583610a44565b9150610ca782610c66565b600582019050919050565b6000610cbd82610c8f565b915081905091905056fea264697066735822122094711d55ee465f40e0079ff99288e167a813dec0d9eb2e554e9be22f2e8bdc3b64736f6c634300080f0033",
  "immutableReferences": {},
  "source": "// SPDX-License-Identifier: MIT\npragma solidity >=0.4.22 <0.9.0;\n\ncontract Votes {\n    address owner;\n\n    constructor() {\n        owner = msg.sender;\n    }\n\n    mapping(address => bool) public voters;\n    mapping(address => bool) public voted;\n    mapping(string => uint) public votees;\n\n    function registerVoter() external{\n        require(owner != msg.sender, \"owner of this contract can not call this function\");\n        voters[msg.sender] = true;\n        voted[msg.sender] = false;\n    }\n\n    function initVotees() external{\n        require(owner == msg.sender, \"only the owner of this contract can call this function\");\n        votees[\"mac\"] = 0;\n        votees[\"windows\"] = 0;\n        votees[\"linux\"] = 0;\n    }\n\n    function vote(string calldata ostype) external{\n        require(voters[msg.sender] == true, \"you are not registered\");\n        require(voted[msg.sender] != true, \"you already voted\");\n        votees[ostype] += 1;\n        voted[msg.sender] = true; \n    }\n\n    // function max(uint a, uint b) private pure returns (uint) {\n    //     return a >= b ? a : b;\n    // }\n\n    // function voteresult() public view returns(string memory) {\n    \n    // }\n}",
  "sourcePath": "/Users/apple/Desktop/projects/blockchain-projects/votingapp/contracts/Votes.sol",
  "compiler": {
    "name": "solc",
    "version": "0.8.15+commit.e14f2714.Emscripten.clang"
  },
  "schemaVersion": "3.4.8",
  "updatedAt": "2022-08-22T22:43:24.082Z",
  "devdoc": {
    "kind": "dev",
    "methods": {},
    "version": 1
  },
  "userdoc": {
    "kind": "user",
    "methods": {},
    "version": 1
  }
}