{
  "contractName": "Votes",
  "abi": [
    {
      "inputs": [],
      "stateMutability": "nonpayable",
      "type": "constructor"
    },
    {
      "inputs": [
        {
          "internalType": "string",
          "name": "",
          "type": "string"
        }
      ],
      "name": "isvotee",
      "outputs": [
        {
          "internalType": "bool",
          "name": "",
          "type": "bool"
        }
      ],
      "stateMutability": "view",
      "type": "function",
      "constant": true
    },
    {
      "inputs": [
        {
          "internalType": "address",
          "name": "",
          "type": "address"
        }
      ],
      "name": "voted",
      "outputs": [
        {
          "internalType": "bool",
          "name": "",
          "type": "bool"
        }
      ],
      "stateMutability": "view",
      "type": "function",
      "constant": true
    },
    {
      "inputs": [
        {
          "internalType": "uint256",
          "name": "",
          "type": "uint256"
        }
      ],
      "name": "voteelist",
      "outputs": [
        {
          "internalType": "string",
          "name": "",
          "type": "string"
        }
      ],
      "stateMutability": "view",
      "type": "function",
      "constant": true
    },
    {
      "inputs": [
        {
          "internalType": "string",
          "name": "",
          "type": "string"
        }
      ],
      "name": "votees",
      "outputs": [
        {
          "internalType": "uint256",
          "name": "",
          "type": "uint256"
        }
      ],
      "stateMutability": "view",
      "type": "function",
      "constant": true
    },
    {
      "inputs": [
        {
          "internalType": "address",
          "name": "",
          "type": "address"
        }
      ],
      "name": "voters",
      "outputs": [
        {
          "internalType": "bool",
          "name": "",
          "type": "bool"
        }
      ],
      "stateMutability": "view",
      "type": "function",
      "constant": true
    },
    {
      "inputs": [],
      "name": "registerVoter",
      "outputs": [],
      "stateMutability": "nonpayable",
      "type": "function"
    },
    {
      "inputs": [],
      "name": "initVotees",
      "outputs": [],
      "stateMutability": "nonpayable",
      "type": "function"
    },
    {
      "inputs": [
        {
          "internalType": "string",
          "name": "ostype",
          "type": "string"
        }
      ],
      "name": "vote",
      "outputs": [],
      "stateMutability": "nonpayable",
      "type": "function"
    },
    {
      "inputs": [],
      "name": "voteresult",
      "outputs": [
        {
          "internalType": "string[]",
          "name": "",
          "type": "string[]"
        },
        {
          "internalType": "uint256[]",
          "name": "",
          "type": "uint256[]"
        }
      ],
      "stateMutability": "view",
      "type": "function",
      "constant": true
    }
  ],
  "bytecode": "0x608060405260405180606001604052806040518060400160405280600381526020017f6d6163000000000000000000000000000000000000000000000000000000000081525081526020016040518060400160405280600781526020017f77696e646f77730000000000000000000000000000000000000000000000000081525081526020016040518060400160405280600581526020017f6c696e75780000000000000000000000000000000000000000000000000000008152508152506005906003620000d092919062000125565b50348015620000de57600080fd5b50336000806101000a81548173ffffffffffffffffffffffffffffffffffffffff021916908373ffffffffffffffffffffffffffffffffffffffff16021790555062000573565b82805482825590600052602060002090810192821562000172579160200282015b82811115620001715782518290816200016091906200048c565b509160200191906001019062000146565b5b50905062000181919062000185565b5090565b5b80821115620001a957600081816200019f9190620001ad565b5060010162000186565b5090565b508054620001bb906200027b565b6000825580601f10620001cf5750620001f0565b601f016020900490600052602060002090810190620001ef9190620001f3565b5b50565b5b808211156200020e576000816000905550600101620001f4565b5090565b600081519050919050565b7f4e487b7100000000000000000000000000000000000000000000000000000000600052604160045260246000fd5b7f4e487b7100000000000000000000000000000000000000000000000000000000600052602260045260246000fd5b600060028204905060018216806200029457607f821691505b602082108103620002aa57620002a96200024c565b5b50919050565b60008190508160005260206000209050919050565b60006020601f8301049050919050565b600082821b905092915050565b600060088302620003147fffffffffffffffffffffffffffffffffffffffffffffffffffffffffffffffff82620002d5565b620003208683620002d5565b95508019841693508086168417925050509392505050565b6000819050919050565b6000819050919050565b60006200036d62000367620003618462000338565b62000342565b62000338565b9050919050565b6000819050919050565b62000389836200034c565b620003a1620003988262000374565b848454620002e2565b825550505050565b600090565b620003b8620003a9565b620003c58184846200037e565b505050565b5b81811015620003ed57620003e1600082620003ae565b600181019050620003cb565b5050565b601f8211156200043c576200040681620002b0565b6200041184620002c5565b8101602085101562000421578190505b620004396200043085620002c5565b830182620003ca565b50505b505050565b600082821c905092915050565b6000620004616000198460080262000441565b1980831691505092915050565b60006200047c83836200044e565b9150826002028217905092915050565b620004978262000212565b67ffffffffffffffff811115620004b357620004b26200021d565b5b620004bf82546200027b565b620004cc828285620003f1565b600060209050601f831160018114620005045760008415620004ef578287015190505b620004fb85826200046e565b8655506200056b565b601f1984166200051486620002b0565b60005b828110156200053e5784890151825560018201915060208501945060208101905062000517565b868310156200055e57848901516200055a601f8916826200044e565b8355505b6001600288020188555050505b505050505050565b61156080620005836000396000f3fe608060405234801561001057600080fd5b50600436106100935760003560e01c8063a3ec138d11610066578063a3ec138d14610147578063aec2ccae14610177578063ecb617d9146101a7578063fc36e15b146101b1578063fd7cdf6a146101cd57610093565b806317c9a6c014610098578063597caa6b146100b7578063894a9f24146100e7578063a196c89b14610117575b600080fd5b6100a06101d7565b6040516100ae929190610bfc565b60405180910390f35b6100d160048036038101906100cc9190610c73565b6103d3565b6040516100de9190610cea565b60405180910390f35b61010160048036038101906100fc9190610e41565b61047f565b60405161010e9190610e99565b60405180910390f35b610131600480360381019061012c9190610e41565b6104ad565b60405161013e9190610ecf565b60405180910390f35b610161600480360381019061015c9190610f48565b6104e3565b60405161016e9190610ecf565b60405180910390f35b610191600480360381019061018c9190610f48565b610503565b60405161019e9190610ecf565b60405180910390f35b6101af610523565b005b6101cb60048036038101906101c69190610fd5565b610662565b005b6101d5610890565b005b606080600060058054905067ffffffffffffffff8111156101fb576101fa610d16565b5b60405190808252806020026020018201604052801561022e57816020015b60608152602001906001900390816102195790505b509050600060058054905067ffffffffffffffff81111561025257610251610d16565b5b6040519080825280602002602001820160405280156102805781602001602082028036833780820191505090505b50905060005b6005805490508110156103c657600581815481106102a7576102a6611022565b5b9060005260206000200180546102bc90611080565b80601f01602080910402602001604051908101604052809291908181526020018280546102e890611080565b80156103355780601f1061030a57610100808354040283529160200191610335565b820191906000526020600020905b81548152906001019060200180831161031857829003601f168201915b505050505083828151811061034d5761034c611022565b5b602002602001018190525060036005828154811061036e5761036d611022565b5b906000526020600020016040516103859190611154565b9081526020016040518091039020548282815181106103a7576103a6611022565b5b60200260200101818152505080806103be9061119a565b915050610286565b5081819350935050509091565b600581815481106103e357600080fd5b9060005260206000200160009150905080546103fe90611080565b80601f016020809104026020016040519081016040528092919081815260200182805461042a90611080565b80156104775780601f1061044c57610100808354040283529160200191610477565b820191906000526020600020905b81548152906001019060200180831161045a57829003601f168201915b505050505081565b6003818051602081018201805184825260208301602085012081835280955050505050506000915090505481565b6004818051602081018201805184825260208301602085012081835280955050505050506000915054906101000a900460ff1681565b60016020528060005260406000206000915054906101000a900460ff1681565b60026020528060005260406000206000915054906101000a900460ff1681565b3373ffffffffffffffffffffffffffffffffffffffff1660008054906101000a900473ffffffffffffffffffffffffffffffffffffffff1673ffffffffffffffffffffffffffffffffffffffff16036105b1576040517f08c379a00000000000000000000000000000000000000000000000000000000081526004016105a890611254565b60405180910390fd5b60018060003373ffffffffffffffffffffffffffffffffffffffff1673ffffffffffffffffffffffffffffffffffffffff16815260200190815260200160002060006101000a81548160ff0219169083151502179055506000600260003373ffffffffffffffffffffffffffffffffffffffff1673ffffffffffffffffffffffffffffffffffffffff16815260200190815260200160002060006101000a81548160ff021916908315150217905550565b60011515600160003373ffffffffffffffffffffffffffffffffffffffff1673ffffffffffffffffffffffffffffffffffffffff16815260200190815260200160002060009054906101000a900460ff161515146106f5576040517f08c379a00000000000000000000000000000000000000000000000000000000081526004016106ec906112c0565b60405180910390fd5b60011515600260003373ffffffffffffffffffffffffffffffffffffffff1673ffffffffffffffffffffffffffffffffffffffff16815260200190815260200160002060009054906101000a900460ff16151503610788576040517f08c379a000000000000000000000000000000000000000000000000000000000815260040161077f9061132c565b60405180910390fd5b600115156004838360405161079e929190611371565b908152602001604051809103902060009054906101000a900460ff161515146107fc576040517f08c379a00000000000000000000000000000000000000000000000000000000081526004016107f390611422565b60405180910390fd5b600160038383604051610810929190611371565b9081526020016040518091039020600082825461082d9190611442565b925050819055506001600260003373ffffffffffffffffffffffffffffffffffffffff1673ffffffffffffffffffffffffffffffffffffffff16815260200190815260200160002060006101000a81548160ff0219169083151502179055505050565b3373ffffffffffffffffffffffffffffffffffffffff1660008054906101000a900473ffffffffffffffffffffffffffffffffffffffff1673ffffffffffffffffffffffffffffffffffffffff161461091e576040517f08c379a00000000000000000000000000000000000000000000000000000000081526004016109159061150a565b60405180910390fd5b60005b6005805490508110156109d657600060036005838154811061094657610945611022565b5b9060005260206000200160405161095d9190611154565b908152602001604051809103902081905550600160046005838154811061098757610986611022565b5b9060005260206000200160405161099e9190611154565b908152602001604051809103902060006101000a81548160ff02191690831515021790555080806109ce9061119a565b915050610921565b50565b600081519050919050565b600082825260208201905092915050565b6000819050602082019050919050565b600081519050919050565b600082825260208201905092915050565b60005b83811015610a3f578082015181840152602081019050610a24565b83811115610a4e576000848401525b50505050565b6000601f19601f8301169050919050565b6000610a7082610a05565b610a7a8185610a10565b9350610a8a818560208601610a21565b610a9381610a54565b840191505092915050565b6000610aaa8383610a65565b905092915050565b6000602082019050919050565b6000610aca826109d9565b610ad481856109e4565b935083602082028501610ae6856109f5565b8060005b85811015610b225784840389528151610b038582610a9e565b9450610b0e83610ab2565b925060208a01995050600181019050610aea565b50829750879550505050505092915050565b600081519050919050565b600082825260208201905092915050565b6000819050602082019050919050565b6000819050919050565b610b7381610b60565b82525050565b6000610b858383610b6a565b60208301905092915050565b6000602082019050919050565b6000610ba982610b34565b610bb38185610b3f565b9350610bbe83610b50565b8060005b83811015610bef578151610bd68882610b79565b9750610be183610b91565b925050600181019050610bc2565b5085935050505092915050565b60006040820190508181036000830152610c168185610abf565b90508181036020830152610c2a8184610b9e565b90509392505050565b6000604051905090565b600080fd5b600080fd5b610c5081610b60565b8114610c5b57600080fd5b50565b600081359050610c6d81610c47565b92915050565b600060208284031215610c8957610c88610c3d565b5b6000610c9784828501610c5e565b91505092915050565b600082825260208201905092915050565b6000610cbc82610a05565b610cc68185610ca0565b9350610cd6818560208601610a21565b610cdf81610a54565b840191505092915050565b60006020820190508181036000830152610d048184610cb1565b905092915050565b600080fd5b600080fd5b7f4e487b7100000000000000000000000000000000000000000000000000000000600052604160045260246000fd5b610d4e82610a54565b810181811067ffffffffffffffff82111715610d6d57610d6c610d16565b5b80604052505050565b6000610d80610c33565b9050610d8c8282610d45565b919050565b600067ffffffffffffffff821115610dac57610dab610d16565b5b610db582610a54565b9050602081019050919050565b82818337600083830152505050565b6000610de4610ddf84610d91565b610d76565b905082815260208101848484011115610e0057610dff610d11565b5b610e0b848285610dc2565b509392505050565b600082601f830112610e2857610e27610d0c565b5b8135610e38848260208601610dd1565b91505092915050565b600060208284031215610e5757610e56610c3d565b5b600082013567ffffffffffffffff811115610e7557610e74610c42565b5b610e8184828501610e13565b91505092915050565b610e9381610b60565b82525050565b6000602082019050610eae6000830184610e8a565b92915050565b60008115159050919050565b610ec981610eb4565b82525050565b6000602082019050610ee46000830184610ec0565b92915050565b600073ffffffffffffffffffffffffffffffffffffffff82169050919050565b6000610f1582610eea565b9050919050565b610f2581610f0a565b8114610f3057600080fd5b50565b600081359050610f4281610f1c565b92915050565b600060208284031215610f5e57610f5d610c3d565b5b6000610f6c84828501610f33565b91505092915050565b600080fd5b600080fd5b60008083601f840112610f9557610f94610d0c565b5b8235905067ffffffffffffffff811115610fb257610fb1610f75565b5b602083019150836001820283011115610fce57610fcd610f7a565b5b9250929050565b60008060208385031215610fec57610feb610c3d565b5b600083013567ffffffffffffffff81111561100a57611009610c42565b5b61101685828601610f7f565b92509250509250929050565b7f4e487b7100000000000000000000000000000000000000000000000000000000600052603260045260246000fd5b7f4e487b7100000000000000000000000000000000000000000000000000000000600052602260045260246000fd5b6000600282049050600182168061109857607f821691505b6020821081036110ab576110aa611051565b5b50919050565b600081905092915050565b60008190508160005260206000209050919050565b600081546110de81611080565b6110e881866110b1565b9450600182166000811461110357600181146111185761114b565b60ff198316865281151582028601935061114b565b611121856110bc565b60005b8381101561114357815481890152600182019150602081019050611124565b838801955050505b50505092915050565b600061116082846110d1565b915081905092915050565b7f4e487b7100000000000000000000000000000000000000000000000000000000600052601160045260246000fd5b60006111a582610b60565b91507fffffffffffffffffffffffffffffffffffffffffffffffffffffffffffffffff82036111d7576111d661116b565b5b600182019050919050565b7f6f776e6572206f66207468697320636f6e74726163742063616e206e6f74206360008201527f616c6c20746869732066756e6374696f6e000000000000000000000000000000602082015250565b600061123e603183610ca0565b9150611249826111e2565b604082019050919050565b6000602082019050818103600083015261126d81611231565b9050919050565b7f796f7520617265206e6f74207265676973746572656400000000000000000000600082015250565b60006112aa601683610ca0565b91506112b582611274565b602082019050919050565b600060208201905081810360008301526112d98161129d565b9050919050565b7f796f7520616c726561647920766f746564000000000000000000000000000000600082015250565b6000611316601183610ca0565b9150611321826112e0565b602082019050919050565b6000602082019050818103600083015261134581611309565b9050919050565b600061135883856110b1565b9350611365838584610dc2565b82840190509392505050565b600061137e82848661134c565b91508190509392505050565b7f696e76616c696420766f74696e67206f7074696f6e2c20636865636b2074686560008201527f207075626c6963206c69737420766f7465656c69737420746f2073656520766160208201527f6c696420766f74696e67206f7074696f6e730000000000000000000000000000604082015250565b600061140c605283610ca0565b91506114178261138a565b606082019050919050565b6000602082019050818103600083015261143b816113ff565b9050919050565b600061144d82610b60565b915061145883610b60565b9250827fffffffffffffffffffffffffffffffffffffffffffffffffffffffffffffffff0382111561148d5761148c61116b565b5b828201905092915050565b7f6f6e6c7920746865206f776e6572206f66207468697320636f6e74726163742060008201527f63616e2063616c6c20746869732066756e6374696f6e00000000000000000000602082015250565b60006114f4603683610ca0565b91506114ff82611498565b604082019050919050565b60006020820190508181036000830152611523816114e7565b905091905056fea26469706673582212205e96e3cbb0f4bbbe334997f167feb46728e7e73b4ae4bfcfb40a22bee1dd2b7764736f6c634300080f0033",
  "immutableReferences": {},
  "source": "// SPDX-License-Identifier: MIT\npragma solidity >=0.4.22 <0.9.0;\n\ncontract Votes {\n    address owner;\n\n    constructor() {\n        owner = msg.sender;\n    }\n\n    mapping(address => bool) public voters;\n    mapping(address => bool) public voted;\n    mapping(string => uint) public votees;\n    mapping(string => bool) public isvotee;\n    string[] public voteelist = [\"mac\", \"windows\", \"linux\"];\n\n    function registerVoter() external{\n        require(owner != msg.sender, \"owner of this contract can not call this function\");\n        voters[msg.sender] = true;\n        voted[msg.sender] = false;\n    }\n\n    function initVotees() external{\n        require(owner == msg.sender, \"only the owner of this contract can call this function\");\n        // votees[\"mac\"] = 0;\n        // votees[\"windows\"] = 0;\n        // votees[\"linux\"] = 0;\n        for(uint i=0; i<voteelist.length; i++){\n            votees[voteelist[i]] = 0;\n            isvotee[voteelist[i]] = true;\n        }\n    }\n\n    function vote(string calldata ostype) external{\n        require(voters[msg.sender] == true, \"you are not registered\");\n        require(voted[msg.sender] != true, \"you already voted\");\n        require(isvotee[ostype] == true, \"invalid voting option, check the public list voteelist to see valid voting options\");\n        votees[ostype] += 1;\n        voted[msg.sender] = true; \n    }\n\n    function voteresult() public view returns(string[] memory, uint[] memory) {\n        string[] memory mvotees = new string[](voteelist.length);\n        uint[] memory mvotes = new uint[](voteelist.length);\n\n        for(uint i=0; i<voteelist.length; i++){\n            mvotees[i] = voteelist[i];\n            mvotes[i] = votees[voteelist[i]]; \n        }       \n\n        return (mvotees, mvotes);\n    }\n}",
  "sourcePath": "/Users/apple/Desktop/projects/blockchain-projects/votingapp/contracts/Votes.sol",
  "compiler": {
    "name": "solc",
    "version": "0.8.15+commit.e14f2714.Emscripten.clang"
  },
  "schemaVersion": "3.4.8",
  "updatedAt": "2022-08-23T10:51:42.862Z",
  "networkType": "ethereum",
  "devdoc": {
    "kind": "dev",
    "methods": {},
    "version": 1
  },
  "userdoc": {
    "kind": "user",
    "methods": {},
    "version": 1
  }
}